:020000040800F2
:100000000000022015270008050300083903000836
:1000100051030008550300085903000800000000C0
:100020000000000000000000000000009105000832
:100030005D03000800000000210600088506000896
:100040007527000875270008752700087527000820
:100050007527000875270008752700087527000810
:100060007527000875270008752700087527000800
:1000700075270008752700087527000875270008F0
:1000800075270008752700087527000875270008E0
:1000900075270008752700087527000875270008D0
:1000A00075270008752700087527000875270008C0
:1000B00075270008752700087527000875270008B0
:1000C00075270008752700087527000875270008A0
:1000D0007527000875270008752700087527000890
:1000E0007527000875270008752700087527000880
:1000F0007527000875270008752700087527000870
:10010000752700087527000875270008752700085F
:10011000752700087527000875270008752700084F
:10012000752700087527000875270008752700083F
:10013000752700087527000875270008752700082F
:10014000752700087527000875270008752700081F
:10015000752700087527000875270008752700080F
:1001600075270008752700087527000875270008FF
:1001700075270008752700087527000875270008EF
:0801800075270008752700082F
:1001900010B5054C237833B9044B13B10448AFF3C1
:1001A00000800123237010BD4804002000000000DF
:1001B0004429000808B5034B1BB103490348AFF3BA
:1001C000008008BD000000004C0400204429000805
:1001D000844641EA000313F003036DD1403A41D352
:1001E00051F8043B40F8043B51F8043B40F8043B11
:1001F00051F8043B40F8043B51F8043B40F8043B01
:1002000051F8043B40F8043B51F8043B40F8043BF0
:1002100051F8043B40F8043B51F8043B40F8043BE0
:1002200051F8043B40F8043B51F8043B40F8043BD0
:1002300051F8043B40F8043B51F8043B40F8043BC0
:1002400051F8043B40F8043B51F8043B40F8043BB0
:1002500051F8043B40F8043B51F8043B40F8043BA0
:10026000403ABDD2303211D351F8043B40F8043B40
:1002700051F8043B40F8043B51F8043B40F8043B80
:1002800051F8043B40F8043B103AEDD20C3205D350
:1002900051F8043B40F8043B043AF9D2043208D048
:1002A000D2071CBF11F8013B00F8013B01D30B88BA
:1002B00003806046704700BF082A13D38B078DD098
:1002C00010F003038AD0C3F10403D21ADB071CBF6A
:1002D00011F8013B00F8013B80D331F8023B20F8D4
:1002E000023B7BE7043AD9D3013A11F8013B00F80D
:1002F000013BF9D20B7803704B7843708B78837095
:1003000060467047704700BF10B4D0E90223D0E9BF
:10031000004189B0009401910292D0E90441039315
:10032000D0E90623049405910692079302BE09B012
:100330005DF8044B704700BF1EF0040F0CBFEFF3D5
:100340000880EFF309808169004A1047090300081B
:10035000FEE700BFFEE700BFFEE700BF704700BF3B
:100360001049114BD1F8882042F4700210B4C1F842
:1003700088201A680D4C002042F001021A60986033
:100380001A6822F0847222F480321A605C601A6863
:100390004FF0006422F480221A60D8608C605DF80F
:1003A000044B704700ED00E000380240103000249C
:1003B00008B5124D124C5321204602F0A1F98021BC
:1003C000204602F0A1F90028F9D015F8011F0029F4
:1003D000F2D10B4C0B4D4821204602F091F98021BF
:1003E000204602F091F90028F9D015F8011F0029E4
:1003F000F2D14FF4FA6001F0BDFAEBE75C29000896
:100400000010014070290008704700BFFEE700BFE0
:10041000FEE700BF044B036010B48223034C0C6062
:100420005DF8044B136070477C0A002064040020D0
:10043000054B036010B44FF48273044C0C605DF8FC
:10044000044B1360704700BFD40A00206C060020E4
:1004500030B5012187B0102002F06EF8164C174D10
:100460000121084602F05CF8154B019369462046CD
:100470004FF4C062009202F06BF820460722092177
:1004800002F0B0F8204607220A2102F0ABF84FF440
:100490009662002302A9284602924FF44022CDE939
:1004A0000332ADF8143002F0BBF80121284602F007
:1004B00019F907B030BD00BF000002400010014034
:1004C0000202000100B583B0FFF74AFF4FF440700D
:1004D00002F09CF8FFF7BCFF00230220CDE90003E7
:1004E00003490448802200F06FFF00F0EFFFFEE7B1
:1004F0008C290008B10300080A4B1B68013308D09F
:100500004FF0500383F31188BFF36F8FBFF34F8F0A
:10051000FEE74FF0500383F31188BFF36F8FBFF3F3
:100520004F8FFEE70400002006480068006880F353
:10053000088862B661B6BFF34F8FBFF36F8F00DFDD
:1005400000BF000008ED00E0DFF80C00016841F496
:10055000700101607047000088ED00E010B44FF0BA
:100560008073074C40F8043C21F001016FF0020356
:1005700040E9034140E909325DF8044B44387047D3
:10058000F904000800000000000000000000000066
:10059000074B19680868B0E8F04F80F30988BFF38B
:1005A0006F8F4FF0000080F311887047AFF3008029
:1005B000780B00204FF0500383F31188BFF36F8F47
:1005C000BFF34F8F0B4A13680133012B136000D028
:1005D00070474FF0E023D3F8043DDBB2002BF7D097
:1005E0004FF0500383F31188BFF36F8FBFF34F8F2A
:1005F000FEE700BF04000020084A136843B94FF02B
:10060000500383F31188BFF36F8FBFF34F8FFEE763
:10061000013B13600BB983F311887047040000207D
:10062000EFF30980BFF36F8F154B1A681EF0100FA0
:1006300008BF20ED108A20E9F04F10604DF8043D0E
:100640004FF0500080F31188BFF34F8FBFF36F8FCF
:1006500001F0C0F94FF0000080F3118808BC196860
:100660000868B0E8F04F1EF0100F08BFB0EC108A19
:1006700080F30988BFF36F8F704700BFAFF300802E
:10068000780B002008B54FF0500383F31188BFF3B7
:100690006F8FBFF34F8F00F0A9FF28B14FF0E02319
:1006A0004FF08052C3F8042D002383F3118808BD56
:1006B000064B07491B68A1FB03134FF0E0229B097F
:1006C000013B072153611161704700BF000000200A
:1006D000D34D62104FF0E023354AD3F8001D91420C
:1006E0005DD0D3F8002D334B9A424FD010B5324B2A
:1006F000324C1A78324882B0FF21D2B2019219707E
:100700001B78DBB28DF803309DF803309DF8032091
:1007100003F0500307211206237001600ED5062254
:100720009DF803305B00DBB28DF803309DF8033099
:100730001B06114602F1FF32F2D401600368019AF0
:100740001D491B024FF0E024D2B203F4E0630360C2
:100750000A70D4F8203D43F47003C4F8203DD4F867
:10076000203D43F07043C4F8203DFFF7A1FF154B37
:1007700000221A60FFF7E8FED4F8343F43F040430C
:10078000C4F8343FFFF7D0FEFFF7B6FE4FF050033A
:1007900083F31188BFF36F8FBFF34F8FFEE74FF0E6
:1007A000500383F31188BFF36F8FBFF34F8FFEE7C2
:1007B00071C20F4170C20F4100E400E02C0B002019
:1007C000300B00200400002000F108034FF0FF313F
:1007D0000022C0E90131C0E903330260704700BF65
:1007E00000230361704700BF43689A688A6002680B
:1007F00010B49C684B600132616099605DF8044BF5
:1008000008610260704700BF30B40D686B1C10D0E7
:1008100000F108031C465B681A68AA42FAD902680C
:100820004B60013299608C606160086130BC02608D
:10083000704704696368F2E7026910B4D0E90113F4
:1008400054688B608442596008BF536013685DF838
:10085000044B013B0021016118461360704700BF43
:1008600070B50446006CA66B20B925684DB30136FF
:10087000A66370BD154602467DB9A068FFF7A8FCC7
:10088000A368226C13446268A360934224BF236868
:10089000A36001362846A66370BDE068FFF798FCA8
:1008A000226CE36851429B1A2268E360934202D2B1
:1008B00063680B44E360022D08D001360020A66374
:1008C00070BD606801F08CFA6560D0E7012E38BF1A
:1008D00001260020CCE700BF30B583B09DF818405A
:1008E00040B94FF0500383F31188BFF36F8FBFF30C
:1008F0004F8FFEE71D467BB102B3B1B15023019388
:10090000019B502B25D04FF0500383F31188BFF388
:100910006F8FBFF34F8FFEE74FF0500383F31188C3
:10092000BFF36F8FBFF34F8FFEE74FF0500383F39A
:100930001188BFF36F8FBFF34F8FFEE799BB502233
:100940000192019A502ADED1012285F846202A46DA
:1009500003E04FF0010C85F846C0C5E90F012A609D
:10096000FFF728FED5E90F12286802FB01F18A1A69
:100970000144696000210244A963FF21C5E9020224
:1009800085F8441005F1100085F84510FFF71CFFAD
:1009900005F12400FFF718FFFFF72EFE284685F823
:1009A0004C4003B030BD4FF0500383F31188BFF3C8
:1009B0006F8FBFF34F8FFEE72DE9F04385B00192B3
:1009C000002800F0A48088461F460446002900F055
:1009D0009180022F0BD1E36B012B08D04FF0500315
:1009E00083F31188BFF36F8FBFF34F8FFEE701F0E2
:1009F00099F90546002800F09380002504F12406AB
:100A0000FFF7D8FDA26BE36B9A42C0F0EF80022F94
:100A100000F0EC800198002800F00181002D00F02A
:100A2000E180FFF7E9FD00F0D3FDFFF7C3FD94F887
:100A30004430FF2B04BF002384F8443094F8453041
:100A4000FF2B04BF002384F84530FFF7D5FD01A933
:100A500002A801F01FF9002840F0E680FFF7AAFD88
:100A6000A26BE36B9A4268D0FFF7C6FDFFF7A2FDC9
:100A700094F8452055B2002D04DC11E06A1ED3B273
:100A800055B26BB1636A304653B101F0A5F8002846
:100A9000F4D001F041F96A1ED3B255B2002BF1D166
:100AA000FF2384F84530FFF7A7FDFFF783FD94F897
:100AB000442055B2002D14DD04F1100903E06A1E34
:100AC000D3B255B26BB12369484653B101F084F8F3
:100AD0000028F4D001F020F96A1ED3B255B2002BE1
:100AE000F1D1FF2384F84430FFF786FD00F0C6FE05
:100AF000012585E7036C002B3FF46BAF4FF05003EB
:100B000083F31188BFF36F8FBFF34F8FFEE74FF072
:100B1000500383F31188BFF36F8FBFF34F8FFEE74E
:100B2000019B002B3FF46AAF4FF0500383F3118811
:100B3000BFF36F8FBFF34F8FFEE704F11009FFF78C
:100B40005BFD0199484600F097FFFFF733FD94F8ED
:100B500045305DB2002D04DC11E06B1EDAB25DB2EF
:100B60006AB1636A304653B101F036F80028F4D018
:100B700001F0D2F86B1EDAB25DB2002AF1D1FF2388
:100B800084F84530FFF738FDFFF714FD94F8443042
:100B90005DB2002D04DC11E06B1EDAB25DB26AB109
:100BA0002369484653B101F017F80028F4D001F04A
:100BB000B3F86B1EDAB25DB2002AF1D1FF2384F8DC
:100BC0004430FFF719FD00F059FE002890D14FF096
:100BD000E0234FF08052C3F8042DBFF34F8FBFF3D3
:100BE0006F8F85E702A801F03FF81AE73A464146C1
:100BF0002046FFF735FE636A002B53D148B14FF012
:100C0000E0234FF08052C3F8042DBFF34F8FBFF3A2
:100C10006F8FFFF7F1FC012005B0BDE8F083009075
:100C2000FFF7EAFC0098F7E7FFF7C4FC94F84530BB
:100C30005DB2002D10DD04F1240603E06B1EDAB274
:100C40005DB24AB1636A304633B100F0C5FF002897
:100C5000F4D001F061F8F1E7FF2384F84530FFF7A5
:100C6000CBFCFFF7A7FC94F844305DB2002D10DDFB
:100C700004F1100603E06B1EDAB25DB24AB12369DB
:100C8000304633B100F0A8FF0028F4D001F044F85A
:100C9000F1E7FF2384F84430FFF7AEFC00F0EEFDEF
:100CA0000020B9E704F1240000F096FF0028B0D03E
:100CB000A5E700BF2DE9F04784B00192002800F0BD
:100CC0006E810F4698460446002900F09E8001F090
:100CD00029F8002800F0A680FFF76CFCA56B002D1A
:100CE00074D1019B002B00F0FC8002A800F0BCFF37
:100CF000A94604F12406FFF77FFC00F069FCFFF72A
:100D000059FC94F84430FF2B08BF84F8449094F8C1
:100D10004530FF2B08BF84F84590FFF76DFC01A913
:100D200002A800F0B7FF002840F08980FFF742FCDE
:100D3000A36B002B00F0DB80FFF75EFCFFF73AFCB3
:100D400094F845305DB2002D04DC11E06B1EDAB280
:100D50005DB26AB1636A304653B100F03DFF0028CE
:100D6000F4D000F0D9FF6B1EDAB25DB2002AF1D1E7
:100D7000FF2384F84530FFF73FFCFFF71BFC94F896
:100D800044305DB2002D14DD04F1100A03E06B1E47
:100D9000DAB25DB26AB12369504653B100F01CFF6C
:100DA0000028F4D000F0B8FF6B1EDAB25DB2002A62
:100DB000F1D1FF2384F84430FFF71EFC00F05EFD04
:100DC000FFF7F8FBA56B002D00F08780226CE6682A
:100DD0004AB16368B1189942E16024BF2168E160BB
:100DE0003846FFF7F5F9B8F1000F40F0E9802368C5
:100DF000013DA563002B00F002812369002B40F028
:100E0000F680FFF7F9FB01206EE0036C002B3FF446
:100E10005EAF4FF0500383F31188BFF36F8FBFF3C2
:100E20004F8FFEE7019B002B3FF456AF4FF050036E
:100E300083F31188BFF36F8FBFF34F8FFEE7FFF788
:100E4000B9FB94F8452055B2002D04DC11E06A1E70
:100E5000D3B255B26BB1636A304653B100F0BCFEF9
:100E60000028F4D000F058FF6A1ED3B255B2002B10
:100E7000F1D1FF2384F84530FFF7BEFBFFF79AFB63
:100E800094F8442055B2002D14DD04F1100A03E05B
:100E90006A1ED3B255B26BB12369504653B100F00C
:100EA0009BFE0028F4D000F037FF6A1ED3B255B283
:100EB000002BF1D1FF2384F84430FFF79DFB00F0B5
:100EC000DDFCFFF777FBA36B5BB1FFF795FBFFF74B
:100ED00071FBA56B002D7FF479AF019B002B7FF494
:100EE0000AAFFFF789FB002004B0BDE8F087FFF7E9
:100EF00083FB2368002B5BD00199304600F0BCFDDA
:100F0000FFF758FB94F845305DB2002D04DC11E08A
:100F10006B1EDAB25DB26AB1636A304653B100F05B
:100F20005BFE0028F4D000F0F7FE6B1EDAB25DB273
:100F3000002AF1D1FF2384F84530FFF75DFBFFF76E
:100F400039FB94F844305DB2002D14DD04F1100A31
:100F500003E06B1EDAB25DB26AB12369504653B149
:100F600000F03AFE0028F4D000F0D6FE6B1EDAB294
:100F70005DB2002AF1D1FF2384F84430FFF73CFB37
:100F800000F07CFC0028A2D14FF0E0234FF080520B
:100F9000C3F8042DBFF34F8FBFF36F8F97E74FF068
:100FA000500383F31188BFF36F8FBFF34F8FFEE7BA
:100FB000FFF700FB606800F0C5FEFFF71DFB9BE735
:100FC000636AE660002B3FF41CAF04F1240000F0DC
:100FD00003FE00283FF415AF4FF0E0234FF080529E
:100FE000C3F8042DBFF34F8FBFF36F8F09E704F1F0
:100FF000100000F0F1FD00283FF403AFECE700F033
:101000004BFF6060F9E600BF124B1A687AB19A682C
:1010100062B11A6992B19A6992B11A6A92B19A6AE6
:1010200092B11A6B92B19A6B92B17047012203EBA5
:10103000C20C43F83210CCF8040070470222F6E7E5
:101040000322F4E70422F2E70522F0E70622EEE7A6
:101050000722ECE7380B002070B505460E46144613
:10106000FFF7A8FA95F84430FF2B04BF002385F85A
:10107000443095F84530FF2B04BF002385F84530F8
:10108000FFF7BAFAAB6B002B43D0FFF793FA95F852
:1010900045305CB2002C14DD05F1240603E0631E2C
:1010A000DAB25CB26AB16B6A304653B100F094FDBB
:1010B0000028F4D000F030FE631EDAB25CB2002AE1
:1010C000F1D1FF2385F84530FFF796FAFFF772FA62
:1010D00095F844305CB2002C14DD05F1100603E0F5
:1010E000631EDAB25CB26AB12B69304653B100F0CC
:1010F00073FD0028F4D000F00FFE631EDAB25CB27C
:10110000002AF1D1FF2385F84430BDE87040FFF795
:1011100073BA2246314605F1240000F0FDFCB4E725
:101120002DE9F8430446FFF745FA354A354D136873
:10113000013313602B68002B33D0334E336843B335
:10114000E06A324F3249334A0B6801330B60236443
:1011500011680123834000EB80000B4307EB800004
:10116000211D1360FFF740FBFFF746FA336873B1A8
:101170002A68E36AD26A9A4209D24FF0E0234FF01C
:101180008052C3F8042DBFF34F8FBFF36F8FBDE8BC
:10119000F8832B68E06ADB6A1C4F834298BF2C609F
:1011A000D0E72C601368012B03D0E06A174F164E6E
:1011B000C8E7164F3E4607F1640830461436FFF77D
:1011C00003FBB045F9D1DFF86490DFF864800E4E80
:1011D0004846FFF7F9FA4046FFF7F6FA0E48FFF7E0
:1011E000F3FA0E48FFF7F0FA0D48FFF7EDFA0D4B52
:1011F000E06AC3F800900C4BC3F80080A2E700BF80
:10120000E80B0020780B0020440C0020840B002009
:10121000F80B0020FC0B0020300C00205C0C0020A0
:10122000480C00207C0B0020800B0020000C0020CC
:10123000140C0020F8B51B4B1B4E1C683368054688
:10124000181D0F46FFF7F8FA48B933681749DA6AEC
:10125000012303FA02F20B6823EA02030B606B1C02
:1012600017D0336864195C6007D3114B1868316874
:10127000BDE8F8400431FFF7C7BA0E4B1868316873
:101280000431FFF7C1FA0C4B1A68A24288BF1C60F8
:10129000F8BD002FE5D031680848BDE8F8400431BA
:1012A000FFF7A2BA700C0020780B0020FC0B002086
:1012B000800B00207C0B0020280C0020480C002014
:1012C0002DE9F843DDE909C4BCF1000F72D0002C10
:1012D00067D00D4696009846022384F85530324672
:1012E0000746C4F830C06046A52101F069FA2B78A2
:1012F00084F83430236B043E1E442B7826F0070913
:1013000053B36B7884F835306B782BB3AB7884F8B3
:101310003630AB7803B3EB7884F83730EB78DBB159
:101320002B7984F838302B79B3B16B7984F8393064
:101330006B798BB1AB7984F83A30AB7963B1EB79E7
:1013400084F83B30EB793BB12B7A84F83C302B7A34
:1013500013B16B7A84F83D30089D042D28BF042515
:101360000026E562A564201D84F83D60E664FFF771
:1013700037FAC5F1050504F11800FFF731FA2665C3
:1013800042463946A5612461646284F85460484647
:10139000FFF7E4F820602046FFF7C2FE2046BDE8D4
:1013A000F8834FF0500383F31188BFF36F8FBFF3BF
:1013B0004F8FFEE74FF0500383F31188BFF36F8F19
:1013C000BFF34F8FFEE700BF2DE9F0479600804640
:1013D00030460D46994600F04BFF00286CD007467A
:1013E000582000F045FF0446002869D00023076319
:1013F000324684F855303846A52101F0E1F92B78C2
:1014000084F834302B78D4F830A053B36B7884F858
:1014100035306B782BB3AB7884F83630AB7803B3C8
:10142000EB7884F83730EB78DBB12B7984F83830FF
:101430002B79B3B16B7984F839306B798BB1AB7997
:1014400084F83A30AB7963B1EB7984F83B30EB79CF
:101450003BB12B7A84F83C302B7A13B16B7A84F849
:101460003D30089D042D28BF04250027E562A564B2
:10147000201D84F83D70E764043EFFF7B1F956443F
:1014800004F11800C5F10505FFF7AAF92765A56164
:101490002461646284F854704A46414626F007008D
:1014A000FFF75CF8099B206003B11C602046FFF742
:1014B00037FE0120BDE8F0874FF0FF30BDE8F08730
:1014C000384600F089FF4FF0FF30F3E770B584B085
:1014D00001A8002503AA02A9CDE90155FEF79AFF4C
:1014E0000298002842D0019C002C36D0039E206335
:1014F00002239E40A521324684F8553001F060F960
:10150000236B2E4A6263201DC4E91255043E84F801
:10151000385084F83D50E5621E44FFF761F904F14C
:101520001800FFF75DF926F0070605232449A3619B
:101530002A4625652461646284F854503046FFF7DA
:101540000DF820602046FFF7EBFD00F033FE012888
:101550001ED0013013D004B070BD4FF0500383F3A0
:101560001188BFF36F8FBFF34F8FFEE74FF050032B
:1015700083F31188BFF36F8FBFF34F8FFEE74FF0F8
:10158000500383F31188BFF36F8FBFF34F8FFEE7D4
:101590004FF0500383F31188BFF36F8FBFF34F8F6A
:1015A0000849094A094B4FF0FF340C6010601D6078
:1015B00004B0BDE87040FFF78DB800BF49444C450A
:1015C0009D180008280C0020440C0020700C0020FE
:1015D000024A136801331360704700BFF40B002008
:1015E000014B1868704700BF700C00202DE9F04FC8
:1015F0004E4B1B6883B0002B4BD14D4B1D68013502
:101600001D60002D53D04B4B01931B68AB4266D835
:10161000494EDFF83C813368DFF838911C68002CB4
:1016200076D0464F00244FF0010A24E00091FFF7E6
:1016300003F9DBF8282000990BF1180012B1FFF72D
:10164000FBF80099DBF82C003B680AFA00F200EB8B
:1016500080001A4308EB80003A60FFF7C5F8D9F81C
:101660000030DBF82C20DB6A9A4228BF0124336863
:101670001B68002B4CD03368DB68D3F80CB0DBF868
:1016800004200BF1040195420846CFD2019B1A6059
:101690002AE02B4A1368013300241360294B1B688E
:1016A000002B0CBF2046012003B0BDE8F08F224B79
:1016B0001A6812681ABB244A18681168196023490D
:1016C00010600A6801320A601A6812682ABB194B56
:1016D00001931A464FF0FF331360134695E7DFF886
:1016E0007080DFF870900024D9F80030DB6A03EBDB
:1016F000830358F82330022B28BF0124CEE74FF094
:10170000500383F31188BFF36F8FBFF34F8FFEE752
:10171000019A4FF0FF331360E6E71B68054ADB6868
:101720000192DB685B68136013466EE7F40B0020E0
:10173000700C0020280C00207C0B0020FC0B0020EB
:10174000F00B0020740C0020800B00202C0C0020DB
:10175000840B0020780B00202DE9F04F83B0FEF7BA
:1017600029FF3C4B1A68013A1A601B68002B5AD1BA
:10177000394B1B68002B56D0DFF8F4A0DAF80030A4
:10178000002B64D0354DDFF8EC80354FDFF8E89062
:101790000126DAF80C30DC6804F1040B04F11800BF
:1017A000FFF74AF85846FFF747F8E06A2A6806FA52
:1017B00000F300EB80001343594608EB80002B60D8
:1017C000FFF712F83B68E26ADB6A9A42DAF8003007
:1017D00031D3C9F80060002BDBD1224B1A681268A4
:1017E000002A2FD01A68204BD268D26852681A603B
:1017F0001E4E346844B10125FFF7F8FE08B1C9F860
:101800000050013CF8D13460D9F800305BB14FF0A2
:10181000E0234FF08052C3F8042DBFF34F8FBFF386
:101820006F8F012000E000200190FEF7E5FE019897
:1018300003B0BDE8F08F002BABD10A4B1A681268D9
:10184000002ACFD1084B4FF0FF321A60D0E7DFF803
:101850002890CDE7F40B0020E80B0020FC0B0020C3
:10186000780B00207C0B0020280C0020F00B0020BF
:10187000300C0020840B0020740C0020064B1B68E9
:1018800043B94FF0500383F31188BFF36F8FBFF359
:101890004F8FFEE7FFF760BFF40B0020304C314D57
:1018A000314EDFF8C8A0DFF8C8902DE988484FF026
:1018B000E0284FF08057DAF80030002B37D023684B
:1018C00001332360236843B94FF0500383F3118839
:1018D000BFF36F8FBFF34F8FFEE7D5F800B0FFF770
:1018E0003BFFBBF1000FE6D0FEF764FEEB68D3F8D8
:1018F0000CB00BF10400FEF79FFF3368013B33602F
:10190000DAF80030013BCAF80030FEF775FE9BF8AC
:101910005530CBB1012B1FD0022BCCD04FF0500350
:1019200083F31188BFF36F8FBFF34F8FFEE7D9F8B2
:101930000030012B05D9C8F8047DBFF34F8FBFF3EA
:101940006F8FFEF761FDB6E7DBF8300000F044FD75
:10195000584600F041FDAEE7584600F03DFDAAE7CD
:10196000F40B00205C0C0020E80B0020EC0B0020A6
:10197000840B002010B550B94FF0E0234FF0805297
:10198000C3F8042DBFF34F8FBFF36F8F10BD104C02
:10199000216841B14FF0500383F31188BFF36F8F7B
:1019A000BFF34F8FFEE7236801332360FFF742FC4C
:1019B000236843B94FF0500383F31188BFF36F8F4F
:1019C000BFF34F8FFEE7FFF7C7FE0028D4D010BD4E
:1019D000F40B0020234B1B681BB1234B01221A6020
:1019E0007047214A10B5214C136023681B6B1A689D
:1019F000B2F1A53F03D15A68B2F1A53F28D02068C3
:101A000021683431FEF702FD194B1B68B3FA83F3EA
:101A1000DBB2C3F11F0303EB8303164A990002EB09
:101A20008303505840B94FF0500383F31188BFF33C
:101A30006F8FBFF34F8FFEE75868083140685860DA
:101A40000A44904204BF40685860C368236010BDD8
:101A50009A68B2F1A53FD2D1DB68B3F1A53FCED1F0
:101A6000D2E700BFF40B0020740C0020780B00209C
:101A7000FC0B0020840B002020B370B51F4D0C46DA
:101A800029681831FEF7C0FE1D4B1E682868043017
:101A9000FEF7D2FE40B92B681A49D86A0B680122BA
:101AA000824023EA02030B60631C14D02B68A41944
:101AB0005C6017D3144B18682968BDE87040043186
:101AC000FEF7A2BE4FF0500383F31188BFF36F8F70
:101AD000BFF34F8FFEE729680C48BDE87040043122
:101AE000FEF782BE0A4B186829680431FEF78CFEA7
:101AF000084B1A68944238BF1C6070BD780B0020F8
:101B0000700C0020FC0B0020800B0020480C0020F3
:101B10007C0B0020280C0020F8B5002844D0274D6D
:101B20000C46296818311646FEF75EFE244B1F68E6
:101B3000286804304EB1FEF77FFEA8B1296821481D
:101B4000BDE8F8400431FEF74FBEFEF775FE68B100
:101B50002B683C195C601BD31B4B18682968BDE8D7
:101B6000F8400431FEF750BE4FF0FF342B681749A0
:101B7000DA6A012303FA02F20B6823EA02030B601C
:101B8000631CE5D1002ED9D12B683C195C60E3D2EF
:101B90000F4B186829680431FEF736FE0D4B1A68A2
:101BA000944200D21C60F8BD4FF0500383F31188BB
:101BB000BFF36F8FBFF34F8FFEE700BF780B00209E
:101BC000700C0020480C0020800B0020FC0B002033
:101BD0007C0B0020280C002070B5C368DC6882B044
:101BE000002C2CD004F118052846FEF725FE184BD2
:101BF0001B687BB117482946FEF7F6FD164BE26AD3
:101C00001B68DB6A9A4285BF144B012000201860D4
:101C100002B070BD211D124D01910846FEF70CFE69
:101C2000E36A2E680F48019901229A4003EB83036F
:101C3000324300EB83002A60FEF7D6FDDEE74FF06B
:101C4000500383F31188BFF36F8FBFF34F8FFEE70D
:101C5000F40B0020300C0020780B0020740C0020C6
:101C6000FC0B0020840B002030B1084A084B12689E
:101C70001B68C0E9002370474FF0500383F31188BD
:101C8000BFF36F8FBFF34F8FFEE700BF2C0C002018
:101C9000700C002070B3F0B50D4683B009B3044654
:101CA000FEF788FC2B681A4A581C11682DD0194E73
:101CB000276830688742606801D0884223D9A1EB49
:101CC000000E73451FD95B1A3168126803442B60FC
:101CD000C4E9001200200190FEF78EFC019803B0C9
:101CE000F0BD4FF0500383F31188BFF36F8FBFF344
:101CF0004F8FFEE74FF0500383F31188BFF36F8FD0
:101D0000BFF34F8FFEE70120E5E70020E3E700BFC8
:101D1000700C00202C0C0020014B01221A6070472F
:101D2000740C0020054B1B6833B1054B1B68002B5E
:101D30000CBF02200020704701207047440C002097
:101D4000F40B0020E8B170B5224DC36A2A68D26A4C
:101D5000934282B0044612D28269002A04DB2A68C8
:101D6000D26AC2F1050282611B4E626903EB8303F2
:101D700006EB83039A4205D02B68DB6AE36202B06C
:101D800070BD7047211D08460191FEF755FD019970
:101D900068B9E36A03EB830256F822203AB90F4A86
:101DA00001209840136823EA0003136000E00B4A07
:101DB0002B68D86AE06201231468834000EB80003E
:101DC000234306EB8000136002B0BDE87040FEF7CD
:101DD0000BBD00BF780B0020840B0020FC0B002003
:101DE00020B3F0B5294B1B68834283B0044608D06A
:101DF0004FF0500383F31188BFF36F8FBFF34F8F02
:101E0000FEE7DB6C4BB1C16A826C013B9142C3645B
:101E100000D06BB1002003B0F0BD4FF0500383F34E
:101E20001188BFF36F8FBFF34F8FFEE7002070471D
:101E3000011D08460191FEF7FFFC0199A0B114486D
:101E4000144AA36C1668E3620125C3F10507A76174
:101E500005FA03F403EB830300EB830034431460BF
:101E6000FEF7C2FC2846D6E7E56A0948094A05EBB1
:101E7000850350F82330002BE3D1012303FA05F545
:101E8000136823EA05031360DBE700BF780B00202B
:101E9000840B0020FC0B0020044B1A681AB119684F
:101EA000CA6C0132CA641868704700BF780B002002
:101EB0002DE9F043214EDFF88C9085B04FF00008FB
:101EC0000CE0DB68DC681F68251D2846FEF7B4FCC3
:101ED000636A20469847E369012B0AD033681A6881
:101EE000002AEED1164A11683160136005B0BDE8D2
:101EF000F083A3693B449F42294605D23068636062
:101F00002461FEF781FCE9E7D9F800306BB1CDE937
:101F100001870394FFF706FF0023D9F800001A4653
:101F200001A9FEF749FD0028D8D14FF0500383F3F3
:101F30001188BFF36F8FBFF34F8FFEE7780C00203F
:101F40007C0C0020740D00202DE9F04F954E964D2D
:101F5000964F974C89B04FF0E0293368D3F8008052
:101F6000B8F1000F00F0AA80DB68D3F80080FFF71B
:101F70002FFBFFF735FB2A688242824600F2AE80D3
:101F80008045286040F2BE8000222068A8EB0A014C
:101F9000FFF762F8FFF772FC38B94FF08053C9F8C9
:101FA000043DBFF34F8FBFF36F8F002320681A46A5
:101FB00002A9FEF77FFE0028CFD0029B002BF4DBA6
:101FC000DDF81080D8F814301BB108F10400FEF7DA
:101FD00033FCFFF705FB2B6898428346C0F08580F1
:101FE000029BC5F800B0092BDFD801A252F823F0FC
:101FF000192000081920000819200008AB1F00084C
:1020000087200008AB2000081920000819200008CC
:10201000AB1F000887200008039BD8F81820C8F8D9
:10202000108098182CBF012100215845C8F80400E1
:102030005ED8ABEB03039A4231D8D8F8243040463F
:102040009847D8F81C30012BAFD1236893B10023F7
:10205000D8F818200593039BCDF81C8013440693F1
:10206000FFF760FE002320681A4605A9FEF7A4FCCE
:1020700000289AD14FF0500383F31188BFF36F8F7C
:10208000BFF34F8FFEE7039BC8F81830002B7CD0BE
:102090005B445B45C8F80430C8F810802CD8386819
:1020A00008F10401FEF7B0FB7FE798F82C30002B15
:1020B0007FF47BAF404600F08FF976E7FFF788FAB0
:1020C000FFF78EFA2A688242824607D83A68C5F836
:1020D00000A01268B2FA82F2520956E7FFF7E8FE52
:1020E000C5F800A0FFF7CAFB5FE7FFF7E1FE77E75F
:1020F0005B4501D90029A0D0306808F10401FEF742
:1021000083FB52E7FFF7BAFB3268D268D2F80CB013
:102110000BF1040108460191FEF78EFBDBF81C0071
:102120000199012804D0DBF82430584698473CE751
:10213000DBF81800CBF810B008EB00035345CBF8E0
:10214000043003D93068FEF75FFBECE7AAEB080325
:10215000984223D823687BB100230593CDF81880DB
:10216000CDF81CB0FFF7DEFD002320681A4605A954
:10217000FEF722FC0028D6D14FF0500383F31188DC
:10218000BFF36F8FBFF34F8FFEE74FF0500383F322
:102190001188BFF36F8FBFF34F8FFEE73868FEF7EC
:1021A00033FBC0E7780C0020200D00207C0C0020C1
:1021B000740D0020F0B5234C89B0FEF7FBF92568BB
:1021C00035B3FEF719FA2368CBB1002407AA06A994
:1021D00005A8CDE90544FEF72BF9DDE90501022349
:1021E000CDE901100093079A174918482346FFF7D5
:1021F00067F8174B186010B1012009B0F0BD4FF01F
:10220000500383F31188BFF36F8FBFF34F8FFEE747
:10221000104F114E3846FEF7D7FA3046FEF7D4FA83
:102220000E4A009517600E4A0E4B16600C210E4A9E
:102230000A20FEF751FB20600028C2D00B49FEF7B0
:10224000E3FEBEE7740D0020A0290008491F000826
:10225000780D0020F80C00200C0D0020780C0020D8
:102260007C0C0020240D0020800C00209829000800
:102270002DE9F0410646FFF7ABF9514B1D68002DE3
:102280006CD0504B1F683E422ED16EB306F108044D
:1022900076071CBF24F0070408342CB3DFF834C1E0
:1022A000DCF80060A6421FD34748036803E01A68C1
:1022B00022B1184613465968A142F8D3AB4213D055
:1022C00098460A1B58F808EBC0F800E0102A2BD9F2
:1022D0001919480711D04FF0500383F31188BFF349
:1022E0006F8FBFF34F8FFEE7FFF7C8FA4FF000087C
:1022F000FEF78EF84046BDE8F0814A60324A5C60E5
:10230000144612689142FBD8606804EB000E7145D8
:1023100046D0D1F804E001EB0E00824247D00A60BB
:102320008C4218BF2160596828480468761A002238
:102330003943A642C3E9002138BF0660CCF80060EB
:10234000FFF79CFA18F0070FD4D04FF0500383F337
:102350001188BFF36F8FBFF34F8FFEE71C49194CF5
:102360004F0714BFCA1D0A4601F59631A1F10805B1
:1023700025F0070518BF22F0070214491D6010461A
:10238000AB1A144A0B60104913604FF0004700224B
:1023900008604A602760C5E90022C0E9005372E77F
:1023A000496800EB010EC4F804E02146B3E7AA42F5
:1023B000B5D0506812680A6070444860B0E700BF4A
:1023C0007C0D0020803901208C39012088390120C2
:1023D000800D002084390120D0B1294A50F8043CF6
:1023E000126813420BD050F8081C91B14FF0500303
:1023F00083F31188BFF36F8FBFF34F8FFEE74FF06A
:10240000500383F31188BFF36F8FBFF34F8FFEE745
:10241000704710B523EA020382B040F8043C194C1F
:102420000190FFF7D5F80198226850F8041C164B6C
:102430000A44083822601A461B689842FBD8546840
:1024400002EB040E704516D000EB010C634508D07A
:102450000360824218BF106002B0BDE81040FFF771
:102460000DBA0A4C2468A342F2D0D3E900342144C7
:10247000C0E90031EDE7214451601046E4E700BFB8
:1024800080390120843901208C3901207C0D002005
:102490001F4A936803F00C03042B10B41BD0082BC5
:1024A0001CD01C4B03601A4A1B499468C4F30314E4
:1024B0000C5DE34043609468C4F382240C5D23FA0E
:1024C00004F4846092685DF8044BC2F342328A5C83
:1024D000D340C3607047114B0360E4E75368516811
:1024E00013F4800F01F03F01536814BF0B4A094AEF
:1024F000B2FBF1F1064A5268C2F30142C3F38813FA
:10250000013201FB03F35200B3FBF2F30360CAE7AD
:10251000003802400024F4000800002000127A0075
:10252000044A136B11B118431063704723EA00008B
:102530001063704700380240044A536C11B11843CD
:102540005064704723EA000050647047003802402E
:1025500000222DE9F04713460D684FF0010E0326C7
:1025600004E00133102B02F1020239D00EFA03FC11
:102570003CEA0504F5D1076806FA02F427EA0407E5
:1025800007600F79D0F800A007FA02F9013F49EA85
:102590000A09012FA046C0F800906FEA040411D880
:1025A00087683C4084604C79876894403C438460F1
:1025B000446824EA0C0444608C7947689C40A4B2C7
:1025C0003C434460C46824EA0804C460CC79C7680A
:1025D000944001333C43102BC46002F10202C5D188
:1025E000BDE8F087CB0800EB830001F00701036A28
:1025F00089004FF00F0C0CFA01FC23EA0C03036274
:10260000036A8A401A430262704700BF034B40F0DE
:10261000BF6040F40030D860704700BF00ED00E0BC
:10262000038ACA889BB223F4405330B513430D4646
:10263000898903828289AB880446288922F4B052B2
:102640000343688922F00C0203431204120C9BB26C
:102650001343A381A38A9BB223F440730B4385B039
:10266000A3826846FFF714FF1C4B9C4205D003F57C
:1026700080639C4201D0029A00E0039AA389184823
:1026800013F4004F2B68A58902EB820202EB820251
:1026900014BF5B009B00B2FBF3F3A0FB03214909CD
:1026A0004FF0640C0A010CFB113329040AD41B01FE
:1026B0003233A0FB0313C3F3431313439BB22381B1
:1026C00005B030BDDB003233A0FB0313C3F342136C
:1026D00013439BB2238105B030BD00BF0010014001
:1026E0001F85EB51838921B19BB243F40053838151
:1026F000704723F400531B041B0C8381704700BFF9
:10270000C1F30801818070470388194214BF01207A
:1027100000207047002103E00F4B5B584350043109
:102720000E480F4B42189A42F6D30E4A02E000239D
:1027300042F8043B0C4B9A42F9D30C4A02E00023C6
:10274000136004320A4B9A42F9D3FDF709FE00F0F8
:1027500013F8FDF7B7FE7047B82900080000002005
:102760004404002048040020983901200000001093
:1027700000000010FEE7000070B50D4E0D4D761BF9
:10278000B61006D0002455F8043B01349847A64201
:10279000F9D1094E094D761B00F0D4F8B61006D0D9
:1027A000002455F8043B01349847A642F9D170BD86
:1027B000AC290008AC290008B4290008AC2900089D
:1027C000830730B548D0541E002A3FD0CAB2034612
:1027D00001E0013C3AD303F8012B9D07F9D1032C0A
:1027E0002DD9CDB245EA05250F2C45EA054536D948
:1027F000A4F1100222F00F0C03F1200EE6444FEA80
:10280000121C03F1100242E9045542E9025510324C
:102810007245F8D10CF1010214F00C0F03EB021217
:1028200004F00F0C13D0ACF1040323F003030433C2
:10283000134442F8045B9342FBD10CF003042CB127
:10284000CAB21C4403F8012B9C42FBD130BD644644
:102850001346002CF4D1F9E703461446BFE71A46A5
:10286000A446E0E7024B13B1024800F005B87047F8
:102870000000000085280008002301461A4618467B
:1028800000F01AB838B5084B084D5B1B9C1007D0F8
:10289000043B1D44013C55F804399847002CF9D1FC
:1028A000BDE8384000F054B8B8290008B429000841
:1028B000704700BF704700BF2DE9F047DFF880A0E8
:1028C0000646DAF8000098460F469146FFF7F0FFFB
:1028D0001A4B1B68D3F8484124B365681F2D26DCCA
:1028E0005EB96B1C0235DAF80000636044F82570AD
:1028F000FFF7E0FF0020BDE8F08704EB850101232E
:10290000C1F88890D4F88821AB401A43022EC4F84D
:102910008821C1F80881E4D1D4F88C211343C4F88C
:102920008C31DEE703F5A674C3F84841D5E7DAF841
:102930000000FFF7BFFF4FF0FF30DCE7A8290008D9
:1029400040040020F8B500BFF8BC08BC9E467047A4
:0C295000F8B500BFF8BC08BC9E467047FC
:10295C0053746172742073696D706C65207461734B
:10296C006B20200048656C6C6F2066726F6D207355
:10297C00696D706C65207461736B20200000000021
:10298C0053696D706C65205461736B00546D72519A
:10299C0000000000546D7220537663001800002074
:0829AC0065280008B5010008D0
:0429B4009101000885
:1029B8000024F400AAAAAAAA000000000102030445
:1029C80001020304060708090000000004030020B0
:1029D8006C030020D4030020000000000000000069
:1029E80000000000000000000000000000000000DF
:1029F80000000000000000000000000000000000CF
:102A080000000000000000000000000000000000BE
:102A180000000000000000000000000000000000AE
:102A2800000000000000000000000000000000009E
:102A3800000000000000000000000000000000008E
:102A4800000000000000000000000000000000007E
:102A5800000000000000000000000000000000006E
:102A6800000000000000000000000000000000005E
:102A780001000000000000000E33CDAB34126DE6FB
:102A8800ECDE05000B000000000000000000000064
:102A9800000000000000000000000000000000002E
:102AA800000000000000000000000000000000001E
:102AB800000000000000000000000000000000000E
:102AC80000000000000000000000000000000000FE
:042DF80094390120E9
:0400000508002715B3
:00000001FF
